{
  "contractName": "VotingContract",
  "abi": [
    {
      "inputs": [],
      "stateMutability": "nonpayable",
      "type": "constructor"
    },
    {
      "anonymous": false,
      "inputs": [
        {
          "indexed": false,
          "internalType": "address",
          "name": "voter",
          "type": "address"
        },
        {
          "indexed": false,
          "internalType": "uint256",
          "name": "candidate",
          "type": "uint256"
        }
      ],
      "name": "VoteCast",
      "type": "event"
    },
    {
      "anonymous": false,
      "inputs": [
        {
          "indexed": false,
          "internalType": "bool",
          "name": "open",
          "type": "bool"
        }
      ],
      "name": "VotingStatusChanged",
      "type": "event"
    },
    {
      "inputs": [
        {
          "internalType": "uint256",
          "name": "",
          "type": "uint256"
        }
      ],
      "name": "candidateVotes",
      "outputs": [
        {
          "internalType": "uint256",
          "name": "",
          "type": "uint256"
        }
      ],
      "stateMutability": "view",
      "type": "function",
      "constant": true
    },
    {
      "inputs": [
        {
          "internalType": "uint256",
          "name": "",
          "type": "uint256"
        }
      ],
      "name": "candidates",
      "outputs": [
        {
          "internalType": "uint256",
          "name": "",
          "type": "uint256"
        }
      ],
      "stateMutability": "view",
      "type": "function",
      "constant": true
    },
    {
      "inputs": [
        {
          "internalType": "address",
          "name": "",
          "type": "address"
        }
      ],
      "name": "votes",
      "outputs": [
        {
          "internalType": "uint256",
          "name": "",
          "type": "uint256"
        }
      ],
      "stateMutability": "view",
      "type": "function",
      "constant": true
    },
    {
      "inputs": [],
      "name": "votingOpen",
      "outputs": [
        {
          "internalType": "bool",
          "name": "",
          "type": "bool"
        }
      ],
      "stateMutability": "view",
      "type": "function",
      "constant": true
    },
    {
      "inputs": [
        {
          "internalType": "uint256",
          "name": "_candidate",
          "type": "uint256"
        }
      ],
      "name": "addCandidate",
      "outputs": [],
      "stateMutability": "nonpayable",
      "type": "function"
    },
    {
      "inputs": [],
      "name": "openVoting",
      "outputs": [],
      "stateMutability": "nonpayable",
      "type": "function"
    },
    {
      "inputs": [],
      "name": "closeVoting",
      "outputs": [],
      "stateMutability": "nonpayable",
      "type": "function"
    },
    {
      "inputs": [
        {
          "internalType": "uint256",
          "name": "_candidate",
          "type": "uint256"
        }
      ],
      "name": "vote",
      "outputs": [],
      "stateMutability": "nonpayable",
      "type": "function"
    },
    {
      "inputs": [],
      "name": "getWinner",
      "outputs": [
        {
          "internalType": "uint256",
          "name": "",
          "type": "uint256"
        }
      ],
      "stateMutability": "view",
      "type": "function",
      "constant": true
    }
  ],
  "bytecode": "0x608060405234801561001057600080fd5b506000600360006101000a81548160ff021916908315150217905550610af88061003b6000396000f3fe608060405234801561001057600080fd5b50600436106100935760003560e01c8063affc067011610066578063affc067014610120578063c631b2921461012a578063d8bff5a514610134578063e844d09714610164578063f49e323e1461018057610093565b80630121b93f146100985780633477ee2e146100b45780638e7ea5b2146100e4578063a95824b414610102575b600080fd5b6100b260048036038101906100ad919061069f565b6101b0565b005b6100ce60048036038101906100c9919061069f565b610328565b6040516100db91906106db565b60405180910390f35b6100ec61034c565b6040516100f991906106db565b60405180910390f35b61010a61045c565b6040516101179190610711565b60405180910390f35b61012861046f565b005b610132610514565b005b61014e6004803603810190610149919061078a565b6105b8565b60405161015b91906106db565b60405180910390f35b61017e6004803603810190610179919061069f565b6105d0565b005b61019a6004803603810190610195919061069f565b61064c565b6040516101a791906106db565b60405180910390f35b600360009054906101000a900460ff166101ff576040517f08c379a00000000000000000000000000000000000000000000000000000000081526004016101f690610814565b60405180910390fd5b60008060003373ffffffffffffffffffffffffffffffffffffffff1673ffffffffffffffffffffffffffffffffffffffff1681526020019081526020016000205414610280576040517f08c379a000000000000000000000000000000000000000000000000000000000815260040161027790610880565b60405180910390fd5b6001600082815260200190815260200160002060008154809291906102a4906108cf565b9190505550806000803373ffffffffffffffffffffffffffffffffffffffff1673ffffffffffffffffffffffffffffffffffffffff168152602001908152602001600020819055507fa36cc2bebb74db33e9f88110a07ef56e1b31b24b4c4f51b54b1664266e29f45b338260405161031d929190610926565b60405180910390a150565b6002818154811061033857600080fd5b906000526020600020016000915090505481565b6000600360009054906101000a900460ff161561039e576040517f08c379a00000000000000000000000000000000000000000000000000000000081526004016103959061099b565b60405180910390fd5b60008060005b600280549050811015610453578160016000600284815481106103ca576103c96109bb565b5b90600052602060002001548152602001908152602001600020541115610440576001600060028381548110610402576104016109bb565b5b9060005260206000200154815260200190815260200160002054915060028181548110610432576104316109bb565b5b906000526020600020015492505b808061044b906108cf565b9150506103a4565b50819250505090565b600360009054906101000a900460ff1681565b600360009054906101000a900460ff16156104bf576040517f08c379a00000000000000000000000000000000000000000000000000000000081526004016104b690610a36565b60405180910390fd5b6001600360006101000a81548160ff0219169083151502179055507f9069a1a16ace751e8690f383e12f87b01e8488ba387e626810bd113fef0417f9600160405161050a9190610711565b60405180910390a1565b600360009054906101000a900460ff16610563576040517f08c379a000000000000000000000000000000000000000000000000000000000815260040161055a90610aa2565b60405180910390fd5b6000600360006101000a81548160ff0219169083151502179055507f9069a1a16ace751e8690f383e12f87b01e8488ba387e626810bd113fef0417f960006040516105ae9190610711565b60405180910390a1565b60006020528060005260406000206000915090505481565b600360009054906101000a900460ff1615610620576040517f08c379a000000000000000000000000000000000000000000000000000000000815260040161061790610a36565b60405180910390fd5b600281908060018154018082558091505060019003906000526020600020016000909190919091505550565b60016020528060005260406000206000915090505481565b600080fd5b6000819050919050565b61067c81610669565b811461068757600080fd5b50565b60008135905061069981610673565b92915050565b6000602082840312156106b5576106b4610664565b5b60006106c38482850161068a565b91505092915050565b6106d581610669565b82525050565b60006020820190506106f060008301846106cc565b92915050565b60008115159050919050565b61070b816106f6565b82525050565b60006020820190506107266000830184610702565b92915050565b600073ffffffffffffffffffffffffffffffffffffffff82169050919050565b60006107578261072c565b9050919050565b6107678161074c565b811461077257600080fd5b50565b6000813590506107848161075e565b92915050565b6000602082840312156107a05761079f610664565b5b60006107ae84828501610775565b91505092915050565b600082825260208201905092915050565b7f566f74696e67206973206e6f74206f70656e0000000000000000000000000000600082015250565b60006107fe6012836107b7565b9150610809826107c8565b602082019050919050565b6000602082019050818103600083015261082d816107f1565b9050919050565b7f566f7465722068617320616c726561647920766f746564000000000000000000600082015250565b600061086a6017836107b7565b915061087582610834565b602082019050919050565b600060208201905081810360008301526108998161085d565b9050919050565b7f4e487b7100000000000000000000000000000000000000000000000000000000600052601160045260246000fd5b60006108da82610669565b91507fffffffffffffffffffffffffffffffffffffffffffffffffffffffffffffffff820361090c5761090b6108a0565b5b600182019050919050565b6109208161074c565b82525050565b600060408201905061093b6000830185610917565b61094860208301846106cc565b9392505050565b7f566f74696e67206973207374696c6c206f70656e000000000000000000000000600082015250565b60006109856014836107b7565b91506109908261094f565b602082019050919050565b600060208201905081810360008301526109b481610978565b9050919050565b7f4e487b7100000000000000000000000000000000000000000000000000000000600052603260045260246000fd5b7f566f74696e6720697320616c7265616479206f70656e00000000000000000000600082015250565b6000610a206016836107b7565b9150610a2b826109ea565b602082019050919050565b60006020820190508181036000830152610a4f81610a13565b9050919050565b7f566f74696e6720697320616c726561647920636c6f7365640000000000000000600082015250565b6000610a8c6018836107b7565b9150610a9782610a56565b602082019050919050565b60006020820190508181036000830152610abb81610a7f565b905091905056fea26469706673582212207d8a7fbcfbfd3c515a18c3f9096745825f37defbf1157ddaf3861d15aa9d5ca564736f6c63430008130033",
  "immutableReferences": {},
  "source": "// SPDX-License-Identifier: UNLICENSED\r\npragma solidity ^0.8.0;\r\n\r\ncontract VotingContract {\r\n    mapping(address => uint256) public votes;\r\n    mapping(uint256 => uint256) public candidateVotes;\r\n    uint256[] public candidates;\r\n    bool public votingOpen;\r\n\r\n    event VoteCast(address voter, uint256 candidate);\r\n    event VotingStatusChanged(bool open);\r\n\r\n    constructor() {\r\n        votingOpen = false;\r\n    }\r\n\r\n    function addCandidate(uint256 _candidate) public {\r\n        require(!votingOpen, \"Voting is already open\");\r\n        candidates.push(_candidate);\r\n    }\r\n\r\n    function openVoting() public {\r\n        require(!votingOpen, \"Voting is already open\");\r\n        votingOpen = true;\r\n        emit VotingStatusChanged(true);\r\n    }\r\n\r\n    function closeVoting() public {\r\n        require(votingOpen, \"Voting is already closed\");\r\n        votingOpen = false;\r\n        emit VotingStatusChanged(false);\r\n    }\r\n\r\n    function vote(uint256 _candidate) public {\r\n        require(votingOpen, \"Voting is not open\");\r\n        require(votes[msg.sender] == 0, \"Voter has already voted\");\r\n\r\n        candidateVotes[_candidate]++;\r\n        votes[msg.sender] = _candidate;\r\n        emit VoteCast(msg.sender, _candidate);\r\n    }\r\n\r\n    function getWinner() public view returns (uint256) {\r\n        require(!votingOpen, \"Voting is still open\");\r\n\r\n        uint256 winner = 0;\r\n        uint256 maxVotes = 0;\r\n\r\n        for (uint256 i = 0; i < candidates.length; i++) {\r\n            if (candidateVotes[candidates[i]] > maxVotes) {\r\n                maxVotes = candidateVotes[candidates[i]];\r\n                winner = candidates[i];\r\n            }\r\n        }\r\n\r\n        return winner;\r\n    }\r\n}\r\n",
  "sourcePath": "F:\\python\\evoting\\backend\\contracts\\VotingContract.sol",
  "compiler": {
    "name": "solc",
    "version": "0.8.19+commit.7dd6d404.Emscripten.clang"
  },
  "schemaVersion": "3.4.16",
  "updatedAt": "2025-04-20T17:10:29.366Z",
  "networkType": "ethereum",
  "devdoc": {
    "kind": "dev",
    "methods": {},
    "version": 1
  },
  "userdoc": {
    "kind": "user",
    "methods": {},
    "version": 1
  }
}